:1000000059C0000067C0000065C0000063C0000068
:1000100061C000005FC000005DC000005BC0000068
:1000200059C0000057C0000055C0000053C0000078
:1000300051C000004FC000004DC000004BC0000088
:100040006CC0000047C0000045C0000043C0000075
:1000500041C000003FC000003DC000003BC00000A8
:1000600039C0000037C0000035C0000033C00000B8
:1000700031C000002FC000002DC000002BC00000C8
:1000800029C0000027C0000025C0000023C00000D8
:1000900021C000001FC000001DC000001BC00000E8
:1000A00019C0000017C0000015C0000013C00000F8
:1000B00011C0000011241FBECFEFD8E0DEBFCDBFBE
:1000C00021E0A0E0B1E001C01D92A230B207E1F74B
:1000D00002D04FC095CF84B1846284B985B1846267
:1000E00085B987B117B888B188B985B5856085BDF0
:1000F000EEE6F0E0808181608083789481E090E09A
:10010000329905C09093010180930001F9CF2A9A9A
:100110001092010110920001F3CF1F920F920FB6BF
:100120000F9211248F939F93809100019091010170
:100130000197C1F42A9816BC80E090E00BC0A89902
:1001400004C083359105DCF308C00196A89A833575
:10015000910519F0A89BF3CFF8CF2A9A10920101CC
:10016000109200019F918F910F900FBE0F901F90E2
:060170001895F894FFCF82
:00000001FF
