S0180000444132435F50617274335F7461736B322E73726563A5
S113000059C0000072C0000070C000006EC0000043
S11300106CC000006AC0000068C0000066C0000038
S113002064C0000062C0000060C000005EC0000048
S11300305CC000005AC0000081C0000056C000002F
S113004054C0000052C0000050C000004EC0000068
S11300504CC000004AC0000048C0000046C0000078
S113006044C0000042C0000040C000003EC0000088
S11300703CC000003AC0000038C0000036C0000098
S113008034C0000032C0000030C000002EC00000A8
S11300902CC000002AC0000028C0000026C00000B8
S11300A024C0000022C0000020C000001EC00000C8
S11300B01CC0000011241FBECFEFD8E0DEBFCDBFAF
S11300C011E0A0E0B1E0EEE9F1E002C005900D928C
S11300D0A230B107D9F721E0A2E0B1E001C01D923E
S11300E0A630B207E1F702D058C08ACF84B1846247
S11300F084B985B1846285B987B117B888B188B9E4
S113010084B5826084BD85B5856085BDEEE6F0E08A
S11301108081826080838091000187BD789481E032
S113012090E0329905C09093050180930401F9CFC2
S11301302A9A1092050110920401F3CF1F920F9294
S11301400FB60F9211248F939F9380910401909185
S113015005010197D9F410920501109204012A981F
S113016016BC08C0A99B0AC0019690930301809312
S11301700201A99A809102019091030186359105AB
S11301808CF310920301109202012A9A9F918F918D
S11101900F900FBE0F901F901895F894FFCF9C
S105019EFF005C
S9030000FC
