:1000000059C0000072C0000070C000006EC0000047
:100010006CC000006AC0000068C0000066C000003C
:1000200064C0000062C0000060C000005EC000004C
:100030005CC000005AC000006DC0000056C0000047
:1000400054C0000052C0000050C000004EC000006C
:100050004CC000004AC0000048C0000046C000007C
:1000600044C0000042C0000040C000003EC000008C
:100070003CC000003AC0000038C0000036C000009C
:1000800034C0000032C0000030C000002EC00000AC
:100090002CC000002AC0000028C0000026C00000BC
:1000A00024C0000022C0000020C000001EC00000CC
:1000B0001CC0000011241FBECFEFD8E0DEBFCDBFB3
:1000C00011E0A0E0B1E0E6EAF1E002C005900D9297
:1000D000A830B107D9F721E0A8E0B1E001C01D9236
:1000E000AA30B207E1F702D05CC08ACF84B1846243
:1000F00084B92D9A84B5826084BD85B5856085BD3F
:10010000EEE6F0E08081826080838091000187BD0F
:100110007894FFCF1F920F920FB60F9211242F9356
:100120003F938F939F9380910801909109010196CD
:1001300090930901809308012091020130910301FD
:100140002130310589F42091060130910701821791
:100150009307F1F42A981092090110920801109265
:1001600003011092020114C0232B91F42091040189
:10017000309105018217930759F42A9A10920901C8
:100180001092080181E090E09093030180930201B6
:100190009F918F913F912F910F900FBE0F901F90C5
:0601A0001895F894FFCF52
:0801A600F40001000F00170036
:00000001FF
