S014000046696E616C50726F6A6563742E737265634F
S11300000C945A000C9477000C9477000C947700AD
S11300100C9477000C9477000C9477000C94770080
S11300200C9477000C9477000C9477000C94770070
S11300300C9477000C9477000C9477000C94770060
S11300400C9477000C9477000C9477000C94770050
S11300500C9477000C9477000C9477000C94770040
S11300600C9477000C9477000C9477000C94770030
S11300700C9477000C9477000C9477000C94770020
S11300800C9477000C9477000C9477000C94770010
S11300900C9477000C9477000C9477000C94770000
S11300A00C9477000C9477000C9477000C947700F0
S11300B00C94770011241FBECFEFD8E0DEBFCDBF74
S11300C011E0A0E0B1E0E4EFFBE002C005900D9286
S11300D0AA3AB107D9F721E0AAEAB1E001C01D921A
S11300E0A63BB207E1F70E9458020C94F8050C9461
S11300F0000088E48093B8000895ECEBF0E01082EF
S113010094EA908390819923ECF79091B900987FB9
S11301109830A1F48093BB0084E88093BC00ECEB9E
S1130120F0E080818823ECF79091B900987F9831B2
S113013039F081E0903429F480E0089581E0089555
S113014080E008958093BB0084E88093BC00ECEBCE
S1130150F0E080818823ECF79091B900987F81E0EA
S1130160983209F480E0089584EC8093BC00ECEBB1
S1130170F0E080818823ECF78091BB00089584E847
S11301808093BC00ECEBF0E080818823ECF7809155
S1130190BB000895CF92DF92FF920F931F93CF93EA
S11301A0DF93C62F6A0189010E947D00F82E811118
S11301B015C08C2F0E94A2000115110559F0E6010B
S11301C00C0D1D1D89910E94A20081110AC0C01747
S11301D0D107C1F784E98093BC0005C0FF24F394E0
S11301E002C0FF24F3948F2DDF91CF911F910F91C3
S11301F0FF90DF90CF900895AF92BF92DF92EF927D
S1130200FF920F931F93CF93DF93182F062F5A015A
S1130210E9010E947D00811122C0802F0E94A2006A
S1130220812F81600E947D00D82E81111BC08E0118
S11302300150110951F0E5017501E00EF11E0E9413
S1130240B4008993EC16FD06D1F7E501C00FD11F68
S11302500E94BF00888384E98093BC0005C0DD242C
S1130260D39402C0DD24D3948D2DDF91CF911F91BF
S11302700F91FF90EF90DF90BF90AF900895E0EC66
S1130280F0E0908195FFFDCF8093C60080E090E080
S11302900895CF93DF9300D000D000D0CDB7DEB760
S11302A021E030E0AE014F5F5F4F67E982E70E94D3
S11302B0FC0021E030E0AE014E5F5F4F66E982E76B
S11302C00E94FC0021E030E0AE014D5F5F4F69E920
S11302D082E70E94FC0021E030E0AE014C5F5F4FFA
S11302E068E982E70E94FC0021E030E0AE014B5F48
S11302F05F4F6BE982E70E94FC0021E030E0AE0131
S11303004A5F5F4F6AE982E70E94FC00498150E03E
S1130310542F44278A81482B5093AF014093AE0158
S11303202B8130E0322F22278C81282B3093AD0192
S11303302093AC018D8190E0982F88276E81862BC5
S11303409093AB018093AA014F3F510539F030F0EF
S11303504FEF50E05093AF014093AE012F3F310572
S113036039F030F02FEF30E03093AD012093AC0141
S11303708F3F910539F030F08FEF90E09093AB010F
S11303808093AA0126960FB6F894DEBF0FBECDBFA8
S1130390DF91CF910895CF93DF931F92CDB7DEB74E
S11303A021E030E0AE014F5F5F4F62E982E70E94D7
S11303B0FC0089818B3A09F0FFCF8BE1898321E02E
S11303C030E0AE014F5F5F4F60E882E70E94CA00F1
S11303D08BED898321E030E0AE014F5F5F4F61E830
S11303E082E70E94CA0086EF898321E030E0AE01F3
S11303F04F5F5F4F63E882E70E94CA0087E8898302
S113040021E030E0AE014F5F5F4F6EE882E70E946B
S1130410CA00198221E030E0AE014F5F5F4F6DE901
S113042082E70E94CA00198221E030E0AE014F5FEA
S11304305F4F6EE982E70E94CA0080E6898321E06B
S113044030E0AE014F5F5F4F6DE882E70E94CA0063
S113045081E1898321E030E0AE014F5F5F4F6CE8BA
S113046082E70E94CA0081E0898321E030E0AE0186
S11304704F5F5F4F60E982E70E94CA00198221E062
S113048030E0AE014F5F5F4F6FE982E70E94CA0020
S11304900F90DF91CF9108951092C50080E1809371
S11304A0C40088E18093C10086E08093C20008956F
S11304B00E944C020E94CB010E94790080E091E0EE
S11304C09093B3018093B2011092AF011092AE01E8
S11304D01092AD011092AC011092AB011092AA01DE
S11304E02FEF87EA91E6215080409040E1F700C069
S11304F000008EE091E00E9400032FEF83E294EF6E
S1130500215080409040E1F700C0000082E191E07A
S11305100E9400032FEF83E294EF2150804090402B
S1130520E1F700C000008FE191E00E940003C0E801
S1130530D1E02FEF83E294EF215080409040E1F727
S113054000C000008BE391E00E9400032FEF83E2E0
S113055094EF215080409040E1F700C0000088E40F
S113056091E00E9400032FEF83E294EF215080403A
S11305709040E1F700C000000E94490180E791E04B
S11305800E9400038091AB018F938091AA018F9305
S11305908091AD018F938091AC018F938091AF01D5
S11305A08F938091AE018F93DF93CF930E94EA02E1
S11305B09FEF2BE782E9915020408040E1F700C093
S11305C000008DB79EB708960FB6F8949EBF0FBE75
S11305D08DBFAFCFA0E0B0E0E0EFF2E00C94D10526
S11305E0AE014B5F5F4FFA0161917191AF01809150
S11305F0B2019091B3010E943003E2E00C94ED0546
S11306000F931F93CF93DF93E091B201F091B30165
S1130610238121FF1BC08C01D0E0C0E0F80181914F
S11306208F016091B2017091B301DB011896ED91D5
S1130630FC911997882331F00995892B79F3DFEF21
S1130640CFEFECCF8AE00995892B19F08FEF9FEF5C
S113065002C08D2F9C2FDF91CF911F910F91089590
S1130660ABE0B0E0E6E3F3E00C94C1056C017B0180
S11306708A01FC0117821682838181FFCCC1CE01DD
S113068001963C01F6019381F70193FD859193FF57
S113069081917F01882309F4BAC1853239F493FD2D
S11306A0859193FF81917F01853229F4B60190E011
S11306B00E942705E7CF912C212C312CFFE1F31563
S11306C0D8F08B3279F038F4803279F08332A1F4A7
S11306D0232D20611DC08D3261F0803369F4232DF8
S11306E0216016C0832D8260382EE32DE4603E2EF7
S11306F02AC0F32DF8601DC037FC2DC020ED280F53
S11307002A3040F08E32B9F436FC81C1232D2064A6
S1130710322E19C036FE06C08AE0989E200D1124A0
S1130720922E11C0EAE02E9E200D1124222EF32DCC
S1130730F0623F2E08C08C3621F4832D8068382E59
S113074002C0883641F4F70193FD859193FF8191AE
S11307507F018111B3CF982F9F7D9554933028F456
S11307600C5F1F4F9FE399830DC0833631F08337AD
S113077071F0833509F059C021C0F8018081898363
S11307800E5F1F4F88248394912C530113C02801BA
S1130790F2E04F0E511CF801A080B18036FE03C078
S11307A0692D70E002C06FEF7FEFC5010E941C0548
S11307B04C018201F32DFF773F2E16C0280122E061
S11307C0420E511CF801A080B18036FE03C0692D91
S11307D070E002C06FEF7FEFC5010E9411054C016C
S11307E0F32DF0683F2E820133FC1BC0822D90E074
S11307F088169906B0F4B60180E290E00E942705BD
S11308002A94F4CFF50137FC859137FE81915F017D
S1130810B60190E00E94270521102A9421E0821A53
S113082091088114910471F7E8C0843611F0893677
S113083041F5F80137FE07C060817181828193819F
S11308400C5F1F4F08C060817181072E000C880B5C
S1130850990B0E5F1F4FF32DFF763F2E97FF09C0B4
S113086090958095709561957F4F8F4F9F4FF0685D
S11308703F2E2AE030E0A3010E946305882E8618EB
S113088045C0853731F4232D2F7EB22E2AE030E087
S113089025C0932D997FB92E8F36C1F018F4883571
S11308A079F0B5C0803719F0883721F0B0C0E92F4E
S11308B0E061BE2EB4FE0DC0FB2DF460BF2E09C056
S11308C034FE0AC0292F2660B22E06C028E030E08C
S11308D005C020E130E002C020E132E0F801B7FEBB
S11308E007C060817181828193810C5F1F4F06C0B4
S11308F06081718180E090E00E5F1F4FA3010E9430
S11309006305882E8618FB2DFF773F2E36FE0DC01B
S1130910232D2E7FA22E891458F434FE0BC032FCF2
S113092009C0832D8E7EA82E05C0B82CA32C03C02D
S1130930B82C01C0B92CA4FE0FC0FE01E80DF11DB6
S11309408081803321F49A2D997EA92E09C0A2FEBC
S113095006C0B394B39404C08A2D867809F0B39486
S1130960A3FC11C0A0FE06C0B21488F4280C922C7B
S11309709B180EC0B21460F4B60180E290E00E94AD
S11309802705B394F7CFB21418F42B1802C0982C8F
S1130990212CA4FE10C0B60180E390E00E9427053C
S11309A0A2FE17C0A1FC03C088E790E002C088E55E
S11309B090E0B6010CC08A2D867859F0A1FE02C0E1
S11309C08BE201C080E2A7FC8DE2B60190E00E94B8
S11309D02705891438F4B60180E390E00E942705C6
S11309E09A94F7CF8A94F301E80DF11D8081B60142
S11309F090E00E9427058110F5CF222009F442CE11
S1130A00B60180E290E00E9427052A94F6CFF60111
S1130A108681978102C08FEF9FEF2B96E2E10C94C1
S1130A20DD05FC010590615070400110D8F78095F8
S1130A3090958E0F9F1F0895FC01615070400190A6
S1130A400110D8F7809590958E0F9F1F08950F93EE
S1130A501F93CF93DF93FB01238121FD03C08FEF0D
S1130A609FEF2CC022FF16C0468157812481358117
S1130A704217530744F4A081B1819D012F5F3F4F7A
S1130A80318320838C93268137812F5F3F4F3783B7
S1130A90268314C08B01EC01FB010084F185E02D59
S1130AA00995892BE1F6D80116968D919C9117979B
S1130AB0019617969C938E931697CE01DF91CF9152
S1130AC01F910F910895FA01AA27283051F120317E
S1130AD081F1E8946F936E7F6E5F7F4F8F4F9F4FCE
S1130AE0AF4FB1E03ED0B4E03CD0670F781F891F10
S1130AF09A1FA11D680F791F8A1F911DA11D6A0FDE
S1130B00711D811D911DA11D20D009F468943F9190
S1130B102AE0269F11243019305D3193DEF6CF018F
S1130B200895462F4770405D4193B3E00FD0C9F755
S1130B30F6CF462F4F70405D4A3318F0495D31FDC2
S1130B404052419302D0A9F7EACFB4E0A695979515
S1130B50879577956795BA95C9F7009761057105EB
S1130B6008959B01AC010A2E069457954795379535
S1130B702795BA95C9F7620F731F841F951FA01D8F
S1130B8008952F923F924F925F926F927F928F922D
S1130B909F92AF92BF92CF92DF92EF92FF920F9308
S1130BA01F93CF93DF93CDB7DEB7CA1BDB0B0FB612
S1130BB0F894DEBF0FBECDBF09942A8839884888CF
S1130BC05F846E847D848C849B84AA84B984C88465
S1130BD0DF80EE80FD800C811B81AA81B981CE0F5C
S1130BE0D11D0FB6F894DEBF0FBECDBFED01089541
S1070BF0F894FFCFA3
S1130BF400000002000000003F0100000000415416
S1130C040D0041542B43574D4F44453D330D004192
S1130C14542B43574A41503D2241535553222C22CD
S1130C246162756C61746F72220D0041542B4349E7
S1130C34504D55583D300D0041542B4349505354A5
S1130C444152543D22544350222C223138342E3103
S1130C5430362E3135332E313439222C38300D00D0
S1130C6441542B43495053454E443D3130340D00D7
S1130C74474554202F7570646174653F6B65793DF5
S1130C845A444731425039343247394E5645574411
S10D0C94266669656C64313D0000BA
S9030000FC
