S00C0000444134412E737265631E
S113000059C0000067C0000065C0000063C0000064
S11300108CC000005FC000005DC000005BC0000039
S113002059C0000057C0000055C0000053C0000074
S113003051C000004FC000004DC000004BC0000084
S113004049C0000047C0000045C0000043C0000094
S113005041C000003FC000003DC000003BC00000A4
S113006039C0000037C0000035C0000033C00000B4
S113007031C000002FC000002DC000002BC00000C4
S113008029C0000027C0000025C0000023C00000D4
S113009021C000001FC000001DC000001BC00000E4
S11300A019C0000017C0000015C0000013C00000F4
S11300B011C0000011241FBECFEFD8E0DEBFCDBFBA
S11300C021E0A0E0B1E001C01D92A430B207E1F745
S11300D002D09CC095CF84B1826284B917B815B898
S11300E0419AE0E8F0E08081826A8083E1E8F0E010
S11300F080818A6180838FE097E290938700809368
S1130100860082E08093680080936C0080E4809392
S11301107C00EAE7F0E080818768808310927B00AE
S113012081E080937E007894FFCF1F920F920FB6E8
S11301300F9211242F933F938F939F93AF93BF9369
S1130140CF93DF93EF93FF932FEF89E698E121504C
S113015080409040E1F700C00000319B36C047C0AA
S113016080910001909101018130910531F585B1B3
S1130170826285B9808180648083808184FD2BC004
S113018088819981937090930301809302018091F7
S11301900201909103019C01220F331F880F991FC4
S11301A0880F991F880F991F820F931F11969C9394
S11301B08E93808184FFE4CF0EC0892B61F4119665
S11301C01C921E9229982D9806C0A8E8B0E0EAE790
S11301D0F0E0C8E7D0E0319BC3CF8091000190915B
S11301E0010121E082279093010180930001FF9196
S11301F0EF91DF91CF91BF91AF919F918F913F91FB
S11302002F910F900FBE0F901F901895F894FFCF69
S9030000FC
