:1000000059C000005FC000005DC000005BC0000080
:1000100059C0000057C0000055C0000053C0000088
:1000200051C000004FC000004DC000004BC0000098
:1000300049C0000047C0000045C0000043C00000A8
:1000400041C000003FC000003DC000003BC00000B8
:1000500039C0000037C0000035C0000033C00000C8
:1000600031C000002FC000002DC000002BC00000D8
:1000700029C0000027C0000025C0000023C00000E8
:1000800021C000001FC000001DC000001BC00000F8
:1000900019C0000017C0000015C0000013C0000008
:1000A00011C000000FC000000DC000000BC0000018
:1000B00009C0000011241FBECFEFD8E0DEBFCDBFC6
:1000C00002D037C09DCF8FEF84B917B885B914BC63
:1000D00085B5856085BD9FEF16BC20E030E00DC082
:1000E00086B58F3F21F02F303105D4F30AC02F5F42
:1000F0003F4F16BC2F30310521F086B58F3F81F779
:10010000F6CF15B816BC20E030E00DC086B58F3FA5
:1001100021F027313105D4F30AC02F5F3F4F16BCC1
:100120002731310521F086B58F3F81F7F6CF95B99C
:06013000D3CFF894FFCFCD
:00000001FF
