S00C0000444133422E737265631E
S113000059C0000072C0000070C000006EC0000043
S11300106CC000006AC0000068C0000066C0000038
S113002064C0000062C0000060C000005EC0000048
S11300305CC000005AC0000058C0000056C0000058
S113004090C0000052C0000050C000004EC000002C
S11300504CC000004AC0000048C0000046C0000078
S113006044C0000042C0000040C000003EC0000088
S11300703CC000003AC0000038C0000036C0000098
S113008034C0000032C0000030C000002EC00000A8
S11300902CC000002AC0000028C0000026C00000B8
S11300A024C0000022C0000020C000001EC00000C8
S11300B01CC0000011241FBECFEFD8E0DEBFCDBFAF
S11300C011E0A0E0B1E0E2EAF5E002C005900D9293
S11300D0AE30B107D9F721E0AEE0B1E001C01D9226
S11300E0AF30B207E1F72BD05AC28ACF1092C500C5
S11300F087E68093C40088E18093C10086E0809302
S1130100C2000895E0ECF0E0908195FFFDCF80936C
S1130110C6000895CF93DF93EC018881882329F0EA
S11301202196F0DF89918111FCCFDF91CF91089561
S113013084E480937C0083E880937A000895D6DF7A
S1130140F7DF81E091E0E6DF14BC85B5846085BD0E
S113015086E086BDEEE6F0E080818160808378945D
S1130160FFCF1F920F920FB60F9211242F933F933C
S11301704F935F936F937F938F939F93AF93BF93AB
S1130180CF93EF93FF9380910E018F5F80930E01C5
S11301909091000189133EC0EAE7F0E08081806419
S11301A08083808184FFFDCFEAE7F0E08081806175
S11301B08083609178008091790070E0782B072E1D
S11301C0000C880B990BD5D020E030E040E85AE3CE
S11301D05CD120E030E44CE955E457D120E030E034
S11301E040E251E42BD092D0605F7F4FCB01880F67
S11301F0991F64E670E0ACD16AE070E0A9D1C82F21
S113020080E3860F7FDF80E38C0F7CDF8AE07ADF78
S113021010920E0186E086BDFF91EF91CF91BF91C0
S1130220AF919F918F917F916F915F914F913F918A
S11302302F910F900FBE0F901F9018950CD0EBC00C
S1130240E3D040F0DAD030F021F45F3F19F0CCC0B5
S1130250511115C1CFC0F0D098F39923C9F3552398
S1130260B1F3951B550BBB27AA27621773078407A5
S113027038F09F5F5F4F220F331F441FAA1FA9F35B
S113028033D00E2E3AF0E0E830D091505040E6954D
S1130290001CCAF729D0FE2F27D0660F771F881FAE
S11302A0BB1F261737074807AB07B0E809F0BB0B9D
S11302B0802DBF01FF2793585F4F2AF09E3F5105C1
S11302C068F092C0DCC05F3FECF3983EDCF38695A7
S11302D077956795B795F7959F5FC9F7880F911D37
S11302E09695879597F90895E1E0660F771F881F23
S11302F0BB1F621773078407BA0720F0621B730BD6
S1130300840BBA0BEE1F88F7E095089504D0689427
S1130310B111B5C0089598D088F09F5790F0B92FC7
S11303209927B751A0F0D1F0660F771F881F991F46
S11303301AF0BA95C9F712C0B13081F09FD0B1E07C
S113034008959CC0672F782F8827B85F39F0B93F8C
S1130350CCF3869577956795B395D9F73EF4909548
S11303608095709561957F4F8F4F9F4F0895E894C6
S113037009C097FB3EF490958095709561957F4FE9
S11303808F4F9F4F9923A9F0F92F96E9BB27939597
S1130390F695879577956795B795F111F8CFFAF4A7
S11303A0BB0F11F460FF1BC06F5F7F4F8F4F9F4FD8
S11303B016C0882311F096E911C0772321F09EE836
S11303C0872F762F05C0662371F096E8862F70E09C
S11303D060E02AF09A95660F771F881FDAF7880F76
S11303E09695879597F9089597F99F6780E870E047
S11303F060E008959FEF80EC089500240A94161697
S1130400170618060906089500240A9412161306FE
S1130410140605060895092E0394000C11F488238C
S113042052F0BB0F40F4BF2B11F460FF04C06F5FA8
S11304307F4F8F4F9F4F089557FD9058440F551F7E
S113044059F05F3F71F04795880F97FB991F61F052
S11304509F3F79F087950895121613061406551FC9
S1130460F2CF4695F1DF08C0161617061806991F35
S1130470F1CF86957105610508940895E894BB272A
S113048066277727CB0197F908950BD0C4CFB5DF42
S113049028F0BADF18F0952309F0A6CFABCF1124CA
S11304A0EECFCADFA0F3959FD1F3950F50E0551F0F
S11304B0629FF001729FBB27F00DB11D639FAA27B5
S11304C0F00DB11DAA1F649F6627B00DA11D661F04
S11304D0829F2227B00DA11D621F739FB00DA11D25
S11304E0621F839FA00D611D221F749F3327A00DDF
S11304F0611D231F849F600D211D822F762F6A2F7B
S113050011249F5750408AF0E1F088234AF0EE0FFF
S1130510FF1FBB1F661F771F881F91505040A9F70C
S11305209E3F510570F060CFAACF5F3FECF3983E39
S1130530DCF3869577956795B795F795E7959F5F73
S1130540C1F7FE2B880F911D9695879597F908950D
S113055097FB072E16F4009406D077FD08D00BD035
S113056007FC05D03EF4909581959F4F08957095B2
S113057061957F4F0895AA1BBB1B51E107C0AA1FB9
S1130580BB1FA617B70710F0A61BB70B881F991F30
S11305905A95A9F780959095BC01CD010895F894DA
S10505A0FFCF87
S11105A2FA436F6E6E65637465640D0A0000A3
S9030000FC
