S0120000445332435F5461736B322E73726563E2
S113000059C0000072C0000070C000006EC0000043
S11300106CC000006AC0000068C0000066C0000038
S113002064C0000062C0000060C000005EC0000048
S11300305CC000005AC0000058C0000056C0000058
S113004064C0000052C0000050C000004EC0000058
S11300504CC000004AC0000048C0000046C0000078
S113006044C0000042C0000040C000003EC0000088
S11300703CC000003AC0000038C0000036C0000098
S113008034C0000032C0000030C000002EC00000A8
S11300902CC000002AC0000028C0000026C00000B8
S11300A024C0000022C0000020C000001EC00000C8
S11300B01CC0000011241FBECFEFD8E0DEBFCDBFAF
S11300C011E0A0E0B1E0ECE9F1E002C005900D928E
S11300D0A630B107D9F721E0A6E0B1E001C01D9236
S11300E0A830B207E1F702D057C08ACF84B1846246
S11300F084B92D9A85B5856085BDEEE6F0E08081F2
S113010081608083789416BCFFCF1F920F920FB644
S11301100F9211242F933F938F939F938091060105
S11301209091070101969093070180930601209115
S11301300001309101012130310589F4209102013F
S11301403091030182179307F1F42A981092070162
S113015010920601109201011092000114C0232B89
S113016091F420910401309105018217930759F409
S11301702A9A109207011092060181E090E0909370
S11301800101809300019F918F913F912F910F90D6
S10F01900FBE0F901F901895F894FFCF3D
S109019C01000F00170032
S9030000FC
